{
  "_format": "hh-sol-artifact-1",
  "contractName": "Storage",
  "sourceName": "contracts/Greeter.sol",
  "abi": [
    {
      "inputs": [
        {
          "internalType": "uint256",
          "name": "pph",
          "type": "uint256"
        },
        {
          "internalType": "uint256",
          "name": "id",
          "type": "uint256"
        },
        {
          "internalType": "string",
          "name": "pic_url",
          "type": "string"
        }
      ],
      "name": "addBike",
      "outputs": [],
      "stateMutability": "nonpayable",
      "type": "function"
    },
    {
      "inputs": [],
      "name": "addUser",
      "outputs": [],
      "stateMutability": "nonpayable",
      "type": "function"
    },
    {
      "inputs": [
        {
          "internalType": "uint256",
          "name": "id",
          "type": "uint256"
        }
      ],
      "name": "onCheckIn",
      "outputs": [],
      "stateMutability": "payable",
      "type": "function"
    },
    {
      "inputs": [],
      "name": "onCheckout",
      "outputs": [
        {
          "internalType": "bool",
          "name": "completion",
          "type": "bool"
        }
      ],
      "stateMutability": "nonpayable",
      "type": "function"
    },
    {
      "inputs": [],
      "name": "onPayingDue",
      "outputs": [],
      "stateMutability": "payable",
      "type": "function"
    },
    {
      "inputs": [],
      "name": "returnDue",
      "outputs": [
        {
          "internalType": "uint256",
          "name": "due",
          "type": "uint256"
        }
      ],
      "stateMutability": "view",
      "type": "function"
    },
    {
      "inputs": [],
      "name": "returnUserData",
      "outputs": [
        {
          "components": [
            {
              "internalType": "address",
              "name": "userAddress",
              "type": "address"
            },
            {
              "internalType": "bool",
              "name": "rented_status",
              "type": "bool"
            },
            {
              "internalType": "uint256",
              "name": "rented_veh_id",
              "type": "uint256"
            },
            {
              "internalType": "uint256",
              "name": "rent_start",
              "type": "uint256"
            }
          ],
          "internalType": "struct Storage.User",
          "name": "data",
          "type": "tuple"
        }
      ],
      "stateMutability": "view",
      "type": "function"
    },
    {
      "inputs": [],
      "name": "returnUserReGStatus",
      "outputs": [
        {
          "internalType": "bool",
          "name": "status",
          "type": "bool"
        }
      ],
      "stateMutability": "view",
      "type": "function"
    },
    {
      "inputs": [],
      "name": "returnUserRentedHr",
      "outputs": [
        {
          "internalType": "uint256",
          "name": "hr",
          "type": "uint256"
        }
      ],
      "stateMutability": "view",
      "type": "function"
    },
    {
      "inputs": [
        {
          "internalType": "uint256",
          "name": "id",
          "type": "uint256"
        }
      ],
      "name": "returnVehiclesData",
      "outputs": [
        {
          "components": [
            {
              "internalType": "uint256",
              "name": "pph",
              "type": "uint256"
            },
            {
              "internalType": "uint256",
              "name": "id",
              "type": "uint256"
            },
            {
              "internalType": "address payable",
              "name": "ownerAddress",
              "type": "address"
            },
            {
              "internalType": "address",
              "name": "tenantAddress",
              "type": "address"
            },
            {
              "internalType": "string",
              "name": "pic_url",
              "type": "string"
            },
            {
              "internalType": "bool",
              "name": "available",
              "type": "bool"
            }
          ],
          "internalType": "struct Storage.Bike",
          "name": "data",
          "type": "tuple"
        }
      ],
      "stateMutability": "view",
      "type": "function"
    }
  ],
  "bytecode": "0x608060405234801561001057600080fd5b50610b7f806100206000396000f3fe6080604052600436106100915760003560e01c80638e22e8e1116100595780638e22e8e114610123578063b1c08e1214610154578063c117e6b314610174578063d1faeb4d14610187578063fd98154a1461022b57600080fd5b80632b09be0014610096578063455c928c146100cc5780635273ae9c146100e35780635bfbe3881461010657806375e6a96d1461010e575b600080fd5b3480156100a257600080fd5b506100b66100b1366004610911565b610240565b6040516100c391906109e8565b60405180910390f35b3480156100d857600080fd5b506100e161036f565b005b3480156100ef57600080fd5b506100f86103d3565b6040519081526020016100c3565b6100e161043c565b34801561011a57600080fd5b506100f8610522565b34801561012f57600080fd5b503360009081526002602052604090205460ff165b60405190151581526020016100c3565b34801561016057600080fd5b506100e161016f366004610929565b61055d565b6100e1610182366004610911565b6105d1565b34801561019357600080fd5b506040805160808082018352600080835260208084018290528385018290526060938401829052338252818152908490208451808401865281546001600160a01b038116808352600160a01b90910460ff1615158285019081526001840154838901908152600290940154928701928352875191825251151593810193909352905194820194909452925191830191909152016100c3565b34801561023757600080fd5b5061014461077d565b6040805160c0810182526000808252602082018190529181018290526060808201839052608082015260a0810191909152600082815260016020818152604092839020835160c08101855281548152928101549183019190915260028101546001600160a01b0390811693830193909352600381015490921660608201526004820180549192916080840191906102d690610ae2565b80601f016020809104026020016040519081016040528092919081815260200182805461030290610ae2565b801561034f5780601f106103245761010080835404028352916020019161034f565b820191906000526020600020905b81548152906001019060200180831161033257829003601f168201915b50505091835250506005919091015460ff16151560209091015292915050565b3360009081526002602052604090205460ff161561038c57600080fd5b336000818152600260208181526040808420805460ff19166001179055908390528220805460ff60a01b199094166001600160a81b03199094169390931783559190910155565b336000908152602081905260408120600201548190603c6103f48142610a8c565b6103fe9190610a8c565b6104089190610acb565b33600090815260208181526040808320600190810154845290915281205491925090610435908390610aac565b9392505050565b33600090815260208190526040812060020154603c61045b8142610a8c565b6104659190610a8c565b61046f9190610acb565b3360009081526020818152604080832060019081015484529091528120549192509061049c908390610aac565b3360009081526020818152604080832060019081015484529091528082206002015490519293506001600160a01b03169183156108fc0291849190818181858888f193505050501580156104f4573d6000803e3d6000fd5b50603c6105018142610a8c565b61050b9190610a8c565b336000908152602081905260409020600201555050565b336000908152602081905260408120600201548190603c6105438142610a8c565b61054d9190610a8c565b6105579190610acb565b92915050565b60008281526001602081815260409092208581559081018490556002810180546001600160a01b03199081163317909155600382018054909116905582516105ad92600490920191840190610878565b50506000908152600160208190526040909120600501805460ff1916909117905550565b6000818152600160205260409020600201546001600160a01b03163314156106405760405162461bcd60e51b815260206004820152601e60248201527f596f752063616e6e6f742072656e74207572206f776e2076656869636c65000060448201526064015b60405180910390fd5b60008181526001602081905260409091206005015460ff161515146106a05760405162461bcd60e51b81526020600482015260166024820152752134b5b29034b9903737ba1030bb30b4b630b136329760511b6044820152606401610637565b33600090815260208190526040902054600160a01b900460ff16156106fe5760405162461bcd60e51b8152602060048201526014602482015273436865636b696e206e6f7420706f737369626c6560601b6044820152606401610637565b60008181526001602081815260408084206003810180546001600160a01b031916339081179091556005909101805460ff19169055845290839052909120805460ff60a01b1916600160a01b17815501819055603c61075d8142610a8c565b6107679190610a8c565b3360009081526020819052604090206002015550565b336000908152602081905260408120600201548190603c61079e8142610a8c565b6107a89190610a8c565b6107b29190610acb565b336000908152602081815260408083206001908101548452909152812054919250906107df908390610aac565b9050801561082f5760405162461bcd60e51b815260206004820152601b60248201527f50617920647565206265666f72652070726f6365656564696e672e00000000006044820152606401610637565b505033600081815260208181526040808320600181810180548652818552928520600501805460ff1916821790559484529183905291909155805460ff60a01b19169055919050565b82805461088490610ae2565b90600052602060002090601f0160209004810192826108a657600085556108ec565b82601f106108bf57805160ff19168380011785556108ec565b828001600101855582156108ec579182015b828111156108ec5782518255916020019190600101906108d1565b506108f89291506108fc565b5090565b5b808211156108f857600081556001016108fd565b600060208284031215610922578081fd5b5035919050565b60008060006060848603121561093d578182fd5b8335925060208401359150604084013567ffffffffffffffff80821115610962578283fd5b818601915086601f830112610975578283fd5b81358181111561098757610987610b33565b604051601f8201601f19908116603f011681019083821181831017156109af576109af610b33565b816040528281528960208487010111156109c7578586fd5b82602086016020830137856020848301015280955050505050509250925092565b60006020808352835181840152808401516040840152604084015160018060a01b0380821660608601528060608701511660808601525050608084015160c060a085015280518060e0860152835b81811015610a535782810184015186820161010001528301610a36565b81811115610a65578461010083880101525b5060a086015180151560c08701529250601f01601f19169390930161010001949350505050565b600082610aa757634e487b7160e01b81526012600452602481fd5b500490565b6000816000190483118215151615610ac657610ac6610b1d565b500290565b600082821015610add57610add610b1d565b500390565b600181811c90821680610af657607f821691505b60208210811415610b1757634e487b7160e01b600052602260045260246000fd5b50919050565b634e487b7160e01b600052601160045260246000fd5b634e487b7160e01b600052604160045260246000fdfea264697066735822122090fab59ff02b97caeeb4a67b738b9606291b80f98dfe3875d31bfb87ae4b422064736f6c63430008040033",
  "linkReferences": {},
  "deployedLinkReferences": {}
}