{"contracts/Greeter.sol":{"Storage":{"abi":[{"inputs":[{"internalType":"uint256","name":"pph","type":"uint256"},{"internalType":"uint256","name":"id","type":"uint256"},{"internalType":"string","name":"pic_url","type":"string"}],"name":"addBike","outputs":[],"stateMutability":"nonpayable","type":"function"},{"inputs":[],"name":"addUser","outputs":[],"stateMutability":"nonpayable","type":"function"},{"inputs":[{"internalType":"uint256","name":"id","type":"uint256"}],"name":"onCheckIn","outputs":[],"stateMutability":"payable","type":"function"},{"inputs":[],"name":"onCheckout","outputs":[{"internalType":"bool","name":"completion","type":"bool"}],"stateMutability":"nonpayable","type":"function"},{"inputs":[],"name":"onPayingDue","outputs":[],"stateMutability":"payable","type":"function"},{"inputs":[],"name":"returnDue","outputs":[{"internalType":"uint256","name":"due","type":"uint256"}],"stateMutability":"view","type":"function"},{"inputs":[],"name":"returnUserData","outputs":[{"components":[{"internalType":"address","name":"userAddress","type":"address"},{"internalType":"bool","name":"rented_status","type":"bool"},{"internalType":"uint256","name":"rented_veh_id","type":"uint256"},{"internalType":"uint256","name":"rent_start","type":"uint256"}],"internalType":"struct Storage.User","name":"data","type":"tuple"}],"stateMutability":"view","type":"function"},{"inputs":[],"name":"returnUserReGStatus","outputs":[{"internalType":"bool","name":"status","type":"bool"}],"stateMutability":"view","type":"function"},{"inputs":[],"name":"returnUserRentedHr","outputs":[{"internalType":"uint256","name":"hr","type":"uint256"}],"stateMutability":"view","type":"function"},{"inputs":[{"internalType":"uint256","name":"id","type":"uint256"}],"name":"returnVehiclesData","outputs":[{"components":[{"internalType":"uint256","name":"pph","type":"uint256"},{"internalType":"uint256","name":"id","type":"uint256"},{"internalType":"address payable","name":"ownerAddress","type":"address"},{"internalType":"address","name":"tenantAddress","type":"address"},{"internalType":"string","name":"pic_url","type":"string"},{"internalType":"bool","name":"available","type":"bool"}],"internalType":"struct Storage.Bike","name":"data","type":"tuple"}],"stateMutability":"view","type":"function"}],"evm":{"bytecode":{"linkReferences":{},"object":"608060405234801561001057600080fd5b50610b7f806100206000396000f3fe6080604052600436106100915760003560e01c80638e22e8e1116100595780638e22e8e114610123578063b1c08e1214610154578063c117e6b314610174578063d1faeb4d14610187578063fd98154a1461022b57600080fd5b80632b09be0014610096578063455c928c146100cc5780635273ae9c146100e35780635bfbe3881461010657806375e6a96d1461010e575b600080fd5b3480156100a257600080fd5b506100b66100b1366004610911565b610240565b6040516100c391906109e8565b60405180910390f35b3480156100d857600080fd5b506100e161036f565b005b3480156100ef57600080fd5b506100f86103d3565b6040519081526020016100c3565b6100e161043c565b34801561011a57600080fd5b506100f8610522565b34801561012f57600080fd5b503360009081526002602052604090205460ff165b60405190151581526020016100c3565b34801561016057600080fd5b506100e161016f366004610929565b61055d565b6100e1610182366004610911565b6105d1565b34801561019357600080fd5b506040805160808082018352600080835260208084018290528385018290526060938401829052338252818152908490208451808401865281546001600160a01b038116808352600160a01b90910460ff1615158285019081526001840154838901908152600290940154928701928352875191825251151593810193909352905194820194909452925191830191909152016100c3565b34801561023757600080fd5b5061014461077d565b6040805160c0810182526000808252602082018190529181018290526060808201839052608082015260a0810191909152600082815260016020818152604092839020835160c08101855281548152928101549183019190915260028101546001600160a01b0390811693830193909352600381015490921660608201526004820180549192916080840191906102d690610ae2565b80601f016020809104026020016040519081016040528092919081815260200182805461030290610ae2565b801561034f5780601f106103245761010080835404028352916020019161034f565b820191906000526020600020905b81548152906001019060200180831161033257829003601f168201915b50505091835250506005919091015460ff16151560209091015292915050565b3360009081526002602052604090205460ff161561038c57600080fd5b336000818152600260208181526040808420805460ff19166001179055908390528220805460ff60a01b199094166001600160a81b03199094169390931783559190910155565b336000908152602081905260408120600201548190603c6103f48142610a8c565b6103fe9190610a8c565b6104089190610acb565b33600090815260208181526040808320600190810154845290915281205491925090610435908390610aac565b9392505050565b33600090815260208190526040812060020154603c61045b8142610a8c565b6104659190610a8c565b61046f9190610acb565b3360009081526020818152604080832060019081015484529091528120549192509061049c908390610aac565b3360009081526020818152604080832060019081015484529091528082206002015490519293506001600160a01b03169183156108fc0291849190818181858888f193505050501580156104f4573d6000803e3d6000fd5b50603c6105018142610a8c565b61050b9190610a8c565b336000908152602081905260409020600201555050565b336000908152602081905260408120600201548190603c6105438142610a8c565b61054d9190610a8c565b6105579190610acb565b92915050565b60008281526001602081815260409092208581559081018490556002810180546001600160a01b03199081163317909155600382018054909116905582516105ad92600490920191840190610878565b50506000908152600160208190526040909120600501805460ff1916909117905550565b6000818152600160205260409020600201546001600160a01b03163314156106405760405162461bcd60e51b815260206004820152601e60248201527f596f752063616e6e6f742072656e74207572206f776e2076656869636c65000060448201526064015b60405180910390fd5b60008181526001602081905260409091206005015460ff161515146106a05760405162461bcd60e51b81526020600482015260166024820152752134b5b29034b9903737ba1030bb30b4b630b136329760511b6044820152606401610637565b33600090815260208190526040902054600160a01b900460ff16156106fe5760405162461bcd60e51b8152602060048201526014602482015273436865636b696e206e6f7420706f737369626c6560601b6044820152606401610637565b60008181526001602081815260408084206003810180546001600160a01b031916339081179091556005909101805460ff19169055845290839052909120805460ff60a01b1916600160a01b17815501819055603c61075d8142610a8c565b6107679190610a8c565b3360009081526020819052604090206002015550565b336000908152602081905260408120600201548190603c61079e8142610a8c565b6107a89190610a8c565b6107b29190610acb565b336000908152602081815260408083206001908101548452909152812054919250906107df908390610aac565b9050801561082f5760405162461bcd60e51b815260206004820152601b60248201527f50617920647565206265666f72652070726f6365656564696e672e00000000006044820152606401610637565b505033600081815260208181526040808320600181810180548652818552928520600501805460ff1916821790559484529183905291909155805460ff60a01b19169055919050565b82805461088490610ae2565b90600052602060002090601f0160209004810192826108a657600085556108ec565b82601f106108bf57805160ff19168380011785556108ec565b828001600101855582156108ec579182015b828111156108ec5782518255916020019190600101906108d1565b506108f89291506108fc565b5090565b5b808211156108f857600081556001016108fd565b600060208284031215610922578081fd5b5035919050565b60008060006060848603121561093d578182fd5b8335925060208401359150604084013567ffffffffffffffff80821115610962578283fd5b818601915086601f830112610975578283fd5b81358181111561098757610987610b33565b604051601f8201601f19908116603f011681019083821181831017156109af576109af610b33565b816040528281528960208487010111156109c7578586fd5b82602086016020830137856020848301015280955050505050509250925092565b60006020808352835181840152808401516040840152604084015160018060a01b0380821660608601528060608701511660808601525050608084015160c060a085015280518060e0860152835b81811015610a535782810184015186820161010001528301610a36565b81811115610a65578461010083880101525b5060a086015180151560c08701529250601f01601f19169390930161010001949350505050565b600082610aa757634e487b7160e01b81526012600452602481fd5b500490565b6000816000190483118215151615610ac657610ac6610b1d565b500290565b600082821015610add57610add610b1d565b500390565b600181811c90821680610af657607f821691505b60208210811415610b1757634e487b7160e01b600052602260045260246000fd5b50919050565b634e487b7160e01b600052601160045260246000fd5b634e487b7160e01b600052604160045260246000fdfea264697066735822122090fab59ff02b97caeeb4a67b738b9606291b80f98dfe3875d31bfb87ae4b422064736f6c63430008040033","opcodes":"PUSH1 0x80 PUSH1 0x40 MSTORE CALLVALUE DUP1 ISZERO PUSH2 0x10 JUMPI PUSH1 0x0 DUP1 REVERT JUMPDEST POP PUSH2 0xB7F DUP1 PUSH2 0x20 PUSH1 0x0 CODECOPY PUSH1 0x0 RETURN INVALID PUSH1 0x80 PUSH1 0x40 MSTORE PUSH1 0x4 CALLDATASIZE LT PUSH2 0x91 JUMPI PUSH1 0x0 CALLDATALOAD PUSH1 0xE0 SHR DUP1 PUSH4 0x8E22E8E1 GT PUSH2 0x59 JUMPI DUP1 PUSH4 0x8E22E8E1 EQ PUSH2 0x123 JUMPI DUP1 PUSH4 0xB1C08E12 EQ PUSH2 0x154 JUMPI DUP1 PUSH4 0xC117E6B3 EQ PUSH2 0x174 JUMPI DUP1 PUSH4 0xD1FAEB4D EQ PUSH2 0x187 JUMPI DUP1 PUSH4 0xFD98154A EQ PUSH2 0x22B JUMPI PUSH1 0x0 DUP1 REVERT JUMPDEST DUP1 PUSH4 0x2B09BE00 EQ PUSH2 0x96 JUMPI DUP1 PUSH4 0x455C928C EQ PUSH2 0xCC JUMPI DUP1 PUSH4 0x5273AE9C EQ PUSH2 0xE3 JUMPI DUP1 PUSH4 0x5BFBE388 EQ PUSH2 0x106 JUMPI DUP1 PUSH4 0x75E6A96D EQ PUSH2 0x10E JUMPI JUMPDEST PUSH1 0x0 DUP1 REVERT JUMPDEST CALLVALUE DUP1 ISZERO PUSH2 0xA2 JUMPI PUSH1 0x0 DUP1 REVERT JUMPDEST POP PUSH2 0xB6 PUSH2 0xB1 CALLDATASIZE PUSH1 0x4 PUSH2 0x911 JUMP JUMPDEST PUSH2 0x240 JUMP JUMPDEST PUSH1 0x40 MLOAD PUSH2 0xC3 SWAP2 SWAP1 PUSH2 0x9E8 JUMP JUMPDEST PUSH1 0x40 MLOAD DUP1 SWAP2 SUB SWAP1 RETURN JUMPDEST CALLVALUE DUP1 ISZERO PUSH2 0xD8 JUMPI PUSH1 0x0 DUP1 REVERT JUMPDEST POP PUSH2 0xE1 PUSH2 0x36F JUMP JUMPDEST STOP JUMPDEST CALLVALUE DUP1 ISZERO PUSH2 0xEF JUMPI PUSH1 0x0 DUP1 REVERT JUMPDEST POP PUSH2 0xF8 PUSH2 0x3D3 JUMP JUMPDEST PUSH1 0x40 MLOAD SWAP1 DUP2 MSTORE PUSH1 0x20 ADD PUSH2 0xC3 JUMP JUMPDEST PUSH2 0xE1 PUSH2 0x43C JUMP JUMPDEST CALLVALUE DUP1 ISZERO PUSH2 0x11A JUMPI PUSH1 0x0 DUP1 REVERT JUMPDEST POP PUSH2 0xF8 PUSH2 0x522 JUMP JUMPDEST CALLVALUE DUP1 ISZERO PUSH2 0x12F JUMPI PUSH1 0x0 DUP1 REVERT JUMPDEST POP CALLER PUSH1 0x0 SWAP1 DUP2 MSTORE PUSH1 0x2 PUSH1 0x20 MSTORE PUSH1 0x40 SWAP1 KECCAK256 SLOAD PUSH1 0xFF AND JUMPDEST PUSH1 0x40 MLOAD SWAP1 ISZERO ISZERO DUP2 MSTORE PUSH1 0x20 ADD PUSH2 0xC3 JUMP JUMPDEST CALLVALUE DUP1 ISZERO PUSH2 0x160 JUMPI PUSH1 0x0 DUP1 REVERT JUMPDEST POP PUSH2 0xE1 PUSH2 0x16F CALLDATASIZE PUSH1 0x4 PUSH2 0x929 JUMP JUMPDEST PUSH2 0x55D JUMP JUMPDEST PUSH2 0xE1 PUSH2 0x182 CALLDATASIZE PUSH1 0x4 PUSH2 0x911 JUMP JUMPDEST PUSH2 0x5D1 JUMP JUMPDEST CALLVALUE DUP1 ISZERO PUSH2 0x193 JUMPI PUSH1 0x0 DUP1 REVERT JUMPDEST POP PUSH1 0x40 DUP1 MLOAD PUSH1 0x80 DUP1 DUP3 ADD DUP4 MSTORE PUSH1 0x0 DUP1 DUP4 MSTORE PUSH1 0x20 DUP1 DUP5 ADD DUP3 SWAP1 MSTORE DUP4 DUP6 ADD DUP3 SWAP1 MSTORE PUSH1 0x60 SWAP4 DUP5 ADD DUP3 SWAP1 MSTORE CALLER DUP3 MSTORE DUP2 DUP2 MSTORE SWAP1 DUP5 SWAP1 KECCAK256 DUP5 MLOAD DUP1 DUP5 ADD DUP7 MSTORE DUP2 SLOAD PUSH1 0x1 PUSH1 0x1 PUSH1 0xA0 SHL SUB DUP2 AND DUP1 DUP4 MSTORE PUSH1 0x1 PUSH1 0xA0 SHL SWAP1 SWAP2 DIV PUSH1 0xFF AND ISZERO ISZERO DUP3 DUP6 ADD SWAP1 DUP2 MSTORE PUSH1 0x1 DUP5 ADD SLOAD DUP4 DUP10 ADD SWAP1 DUP2 MSTORE PUSH1 0x2 SWAP1 SWAP5 ADD SLOAD SWAP3 DUP8 ADD SWAP3 DUP4 MSTORE DUP8 MLOAD SWAP2 DUP3 MSTORE MLOAD ISZERO ISZERO SWAP4 DUP2 ADD SWAP4 SWAP1 SWAP4 MSTORE SWAP1 MLOAD SWAP5 DUP3 ADD SWAP5 SWAP1 SWAP5 MSTORE SWAP3 MLOAD SWAP2 DUP4 ADD SWAP2 SWAP1 SWAP2 MSTORE ADD PUSH2 0xC3 JUMP JUMPDEST CALLVALUE DUP1 ISZERO PUSH2 0x237 JUMPI PUSH1 0x0 DUP1 REVERT JUMPDEST POP PUSH2 0x144 PUSH2 0x77D JUMP JUMPDEST PUSH1 0x40 DUP1 MLOAD PUSH1 0xC0 DUP2 ADD DUP3 MSTORE PUSH1 0x0 DUP1 DUP3 MSTORE PUSH1 0x20 DUP3 ADD DUP2 SWAP1 MSTORE SWAP2 DUP2 ADD DUP3 SWAP1 MSTORE PUSH1 0x60 DUP1 DUP3 ADD DUP4 SWAP1 MSTORE PUSH1 0x80 DUP3 ADD MSTORE PUSH1 0xA0 DUP2 ADD SWAP2 SWAP1 SWAP2 MSTORE PUSH1 0x0 DUP3 DUP2 MSTORE PUSH1 0x1 PUSH1 0x20 DUP2 DUP2 MSTORE PUSH1 0x40 SWAP3 DUP4 SWAP1 KECCAK256 DUP4 MLOAD PUSH1 0xC0 DUP2 ADD DUP6 MSTORE DUP2 SLOAD DUP2 MSTORE SWAP3 DUP2 ADD SLOAD SWAP2 DUP4 ADD SWAP2 SWAP1 SWAP2 MSTORE PUSH1 0x2 DUP2 ADD SLOAD PUSH1 0x1 PUSH1 0x1 PUSH1 0xA0 SHL SUB SWAP1 DUP2 AND SWAP4 DUP4 ADD SWAP4 SWAP1 SWAP4 MSTORE PUSH1 0x3 DUP2 ADD SLOAD SWAP1 SWAP3 AND PUSH1 0x60 DUP3 ADD MSTORE PUSH1 0x4 DUP3 ADD DUP1 SLOAD SWAP2 SWAP3 SWAP2 PUSH1 0x80 DUP5 ADD SWAP2 SWAP1 PUSH2 0x2D6 SWAP1 PUSH2 0xAE2 JUMP JUMPDEST DUP1 PUSH1 0x1F ADD PUSH1 0x20 DUP1 SWAP2 DIV MUL PUSH1 0x20 ADD PUSH1 0x40 MLOAD SWAP1 DUP2 ADD PUSH1 0x40 MSTORE DUP1 SWAP3 SWAP2 SWAP1 DUP2 DUP2 MSTORE PUSH1 0x20 ADD DUP3 DUP1 SLOAD PUSH2 0x302 SWAP1 PUSH2 0xAE2 JUMP JUMPDEST DUP1 ISZERO PUSH2 0x34F JUMPI DUP1 PUSH1 0x1F LT PUSH2 0x324 JUMPI PUSH2 0x100 DUP1 DUP4 SLOAD DIV MUL DUP4 MSTORE SWAP2 PUSH1 0x20 ADD SWAP2 PUSH2 0x34F JUMP JUMPDEST DUP3 ADD SWAP2 SWAP1 PUSH1 0x0 MSTORE PUSH1 0x20 PUSH1 0x0 KECCAK256 SWAP1 JUMPDEST DUP2 SLOAD DUP2 MSTORE SWAP1 PUSH1 0x1 ADD SWAP1 PUSH1 0x20 ADD DUP1 DUP4 GT PUSH2 0x332 JUMPI DUP3 SWAP1 SUB PUSH1 0x1F AND DUP3 ADD SWAP2 JUMPDEST POP POP POP SWAP2 DUP4 MSTORE POP POP PUSH1 0x5 SWAP2 SWAP1 SWAP2 ADD SLOAD PUSH1 0xFF AND ISZERO ISZERO PUSH1 0x20 SWAP1 SWAP2 ADD MSTORE SWAP3 SWAP2 POP POP JUMP JUMPDEST CALLER PUSH1 0x0 SWAP1 DUP2 MSTORE PUSH1 0x2 PUSH1 0x20 MSTORE PUSH1 0x40 SWAP1 KECCAK256 SLOAD PUSH1 0xFF AND ISZERO PUSH2 0x38C JUMPI PUSH1 0x0 DUP1 REVERT JUMPDEST CALLER PUSH1 0x0 DUP2 DUP2 MSTORE PUSH1 0x2 PUSH1 0x20 DUP2 DUP2 MSTORE PUSH1 0x40 DUP1 DUP5 KECCAK256 DUP1 SLOAD PUSH1 0xFF NOT AND PUSH1 0x1 OR SWAP1 SSTORE SWAP1 DUP4 SWAP1 MSTORE DUP3 KECCAK256 DUP1 SLOAD PUSH1 0xFF PUSH1 0xA0 SHL NOT SWAP1 SWAP5 AND PUSH1 0x1 PUSH1 0x1 PUSH1 0xA8 SHL SUB NOT SWAP1 SWAP5 AND SWAP4 SWAP1 SWAP4 OR DUP4 SSTORE SWAP2 SWAP1 SWAP2 ADD SSTORE JUMP JUMPDEST CALLER PUSH1 0x0 SWAP1 DUP2 MSTORE PUSH1 0x20 DUP2 SWAP1 MSTORE PUSH1 0x40 DUP2 KECCAK256 PUSH1 0x2 ADD SLOAD DUP2 SWAP1 PUSH1 0x3C PUSH2 0x3F4 DUP2 TIMESTAMP PUSH2 0xA8C JUMP JUMPDEST PUSH2 0x3FE SWAP2 SWAP1 PUSH2 0xA8C JUMP JUMPDEST PUSH2 0x408 SWAP2 SWAP1 PUSH2 0xACB JUMP JUMPDEST CALLER PUSH1 0x0 SWAP1 DUP2 MSTORE PUSH1 0x20 DUP2 DUP2 MSTORE PUSH1 0x40 DUP1 DUP4 KECCAK256 PUSH1 0x1 SWAP1 DUP2 ADD SLOAD DUP5 MSTORE SWAP1 SWAP2 MSTORE DUP2 KECCAK256 SLOAD SWAP2 SWAP3 POP SWAP1 PUSH2 0x435 SWAP1 DUP4 SWAP1 PUSH2 0xAAC JUMP JUMPDEST SWAP4 SWAP3 POP POP POP JUMP JUMPDEST CALLER PUSH1 0x0 SWAP1 DUP2 MSTORE PUSH1 0x20 DUP2 SWAP1 MSTORE PUSH1 0x40 DUP2 KECCAK256 PUSH1 0x2 ADD SLOAD PUSH1 0x3C PUSH2 0x45B DUP2 TIMESTAMP PUSH2 0xA8C JUMP JUMPDEST PUSH2 0x465 SWAP2 SWAP1 PUSH2 0xA8C JUMP JUMPDEST PUSH2 0x46F SWAP2 SWAP1 PUSH2 0xACB JUMP JUMPDEST CALLER PUSH1 0x0 SWAP1 DUP2 MSTORE PUSH1 0x20 DUP2 DUP2 MSTORE PUSH1 0x40 DUP1 DUP4 KECCAK256 PUSH1 0x1 SWAP1 DUP2 ADD SLOAD DUP5 MSTORE SWAP1 SWAP2 MSTORE DUP2 KECCAK256 SLOAD SWAP2 SWAP3 POP SWAP1 PUSH2 0x49C SWAP1 DUP4 SWAP1 PUSH2 0xAAC JUMP JUMPDEST CALLER PUSH1 0x0 SWAP1 DUP2 MSTORE PUSH1 0x20 DUP2 DUP2 MSTORE PUSH1 0x40 DUP1 DUP4 KECCAK256 PUSH1 0x1 SWAP1 DUP2 ADD SLOAD DUP5 MSTORE SWAP1 SWAP2 MSTORE DUP1 DUP3 KECCAK256 PUSH1 0x2 ADD SLOAD SWAP1 MLOAD SWAP3 SWAP4 POP PUSH1 0x1 PUSH1 0x1 PUSH1 0xA0 SHL SUB AND SWAP2 DUP4 ISZERO PUSH2 0x8FC MUL SWAP2 DUP5 SWAP2 SWAP1 DUP2 DUP2 DUP2 DUP6 DUP9 DUP9 CALL SWAP4 POP POP POP POP ISZERO DUP1 ISZERO PUSH2 0x4F4 JUMPI RETURNDATASIZE PUSH1 0x0 DUP1 RETURNDATACOPY RETURNDATASIZE PUSH1 0x0 REVERT JUMPDEST POP PUSH1 0x3C PUSH2 0x501 DUP2 TIMESTAMP PUSH2 0xA8C JUMP JUMPDEST PUSH2 0x50B SWAP2 SWAP1 PUSH2 0xA8C JUMP JUMPDEST CALLER PUSH1 0x0 SWAP1 DUP2 MSTORE PUSH1 0x20 DUP2 SWAP1 MSTORE PUSH1 0x40 SWAP1 KECCAK256 PUSH1 0x2 ADD SSTORE POP POP JUMP JUMPDEST CALLER PUSH1 0x0 SWAP1 DUP2 MSTORE PUSH1 0x20 DUP2 SWAP1 MSTORE PUSH1 0x40 DUP2 KECCAK256 PUSH1 0x2 ADD SLOAD DUP2 SWAP1 PUSH1 0x3C PUSH2 0x543 DUP2 TIMESTAMP PUSH2 0xA8C JUMP JUMPDEST PUSH2 0x54D SWAP2 SWAP1 PUSH2 0xA8C JUMP JUMPDEST PUSH2 0x557 SWAP2 SWAP1 PUSH2 0xACB JUMP JUMPDEST SWAP3 SWAP2 POP POP JUMP JUMPDEST PUSH1 0x0 DUP3 DUP2 MSTORE PUSH1 0x1 PUSH1 0x20 DUP2 DUP2 MSTORE PUSH1 0x40 SWAP1 SWAP3 KECCAK256 DUP6 DUP2 SSTORE SWAP1 DUP2 ADD DUP5 SWAP1 SSTORE PUSH1 0x2 DUP2 ADD DUP1 SLOAD PUSH1 0x1 PUSH1 0x1 PUSH1 0xA0 SHL SUB NOT SWAP1 DUP2 AND CALLER OR SWAP1 SWAP2 SSTORE PUSH1 0x3 DUP3 ADD DUP1 SLOAD SWAP1 SWAP2 AND SWAP1 SSTORE DUP3 MLOAD PUSH2 0x5AD SWAP3 PUSH1 0x4 SWAP1 SWAP3 ADD SWAP2 DUP5 ADD SWAP1 PUSH2 0x878 JUMP JUMPDEST POP POP PUSH1 0x0 SWAP1 DUP2 MSTORE PUSH1 0x1 PUSH1 0x20 DUP2 SWAP1 MSTORE PUSH1 0x40 SWAP1 SWAP2 KECCAK256 PUSH1 0x5 ADD DUP1 SLOAD PUSH1 0xFF NOT AND SWAP1 SWAP2 OR SWAP1 SSTORE POP JUMP JUMPDEST PUSH1 0x0 DUP2 DUP2 MSTORE PUSH1 0x1 PUSH1 0x20 MSTORE PUSH1 0x40 SWAP1 KECCAK256 PUSH1 0x2 ADD SLOAD PUSH1 0x1 PUSH1 0x1 PUSH1 0xA0 SHL SUB AND CALLER EQ ISZERO PUSH2 0x640 JUMPI PUSH1 0x40 MLOAD PUSH3 0x461BCD PUSH1 0xE5 SHL DUP2 MSTORE PUSH1 0x20 PUSH1 0x4 DUP3 ADD MSTORE PUSH1 0x1E PUSH1 0x24 DUP3 ADD MSTORE PUSH32 0x596F752063616E6E6F742072656E74207572206F776E2076656869636C650000 PUSH1 0x44 DUP3 ADD MSTORE PUSH1 0x64 ADD JUMPDEST PUSH1 0x40 MLOAD DUP1 SWAP2 SUB SWAP1 REVERT JUMPDEST PUSH1 0x0 DUP2 DUP2 MSTORE PUSH1 0x1 PUSH1 0x20 DUP2 SWAP1 MSTORE PUSH1 0x40 SWAP1 SWAP2 KECCAK256 PUSH1 0x5 ADD SLOAD PUSH1 0xFF AND ISZERO ISZERO EQ PUSH2 0x6A0 JUMPI PUSH1 0x40 MLOAD PUSH3 0x461BCD PUSH1 0xE5 SHL DUP2 MSTORE PUSH1 0x20 PUSH1 0x4 DUP3 ADD MSTORE PUSH1 0x16 PUSH1 0x24 DUP3 ADD MSTORE PUSH22 0x2134B5B29034B9903737BA1030BB30B4B630B1363297 PUSH1 0x51 SHL PUSH1 0x44 DUP3 ADD MSTORE PUSH1 0x64 ADD PUSH2 0x637 JUMP JUMPDEST CALLER PUSH1 0x0 SWAP1 DUP2 MSTORE PUSH1 0x20 DUP2 SWAP1 MSTORE PUSH1 0x40 SWAP1 KECCAK256 SLOAD PUSH1 0x1 PUSH1 0xA0 SHL SWAP1 DIV PUSH1 0xFF AND ISZERO PUSH2 0x6FE JUMPI PUSH1 0x40 MLOAD PUSH3 0x461BCD PUSH1 0xE5 SHL DUP2 MSTORE PUSH1 0x20 PUSH1 0x4 DUP3 ADD MSTORE PUSH1 0x14 PUSH1 0x24 DUP3 ADD MSTORE PUSH20 0x436865636B696E206E6F7420706F737369626C65 PUSH1 0x60 SHL PUSH1 0x44 DUP3 ADD MSTORE PUSH1 0x64 ADD PUSH2 0x637 JUMP JUMPDEST PUSH1 0x0 DUP2 DUP2 MSTORE PUSH1 0x1 PUSH1 0x20 DUP2 DUP2 MSTORE PUSH1 0x40 DUP1 DUP5 KECCAK256 PUSH1 0x3 DUP2 ADD DUP1 SLOAD PUSH1 0x1 PUSH1 0x1 PUSH1 0xA0 SHL SUB NOT AND CALLER SWAP1 DUP2 OR SWAP1 SWAP2 SSTORE PUSH1 0x5 SWAP1 SWAP2 ADD DUP1 SLOAD PUSH1 0xFF NOT AND SWAP1 SSTORE DUP5 MSTORE SWAP1 DUP4 SWAP1 MSTORE SWAP1 SWAP2 KECCAK256 DUP1 SLOAD PUSH1 0xFF PUSH1 0xA0 SHL NOT AND PUSH1 0x1 PUSH1 0xA0 SHL OR DUP2 SSTORE ADD DUP2 SWAP1 SSTORE PUSH1 0x3C PUSH2 0x75D DUP2 TIMESTAMP PUSH2 0xA8C JUMP JUMPDEST PUSH2 0x767 SWAP2 SWAP1 PUSH2 0xA8C JUMP JUMPDEST CALLER PUSH1 0x0 SWAP1 DUP2 MSTORE PUSH1 0x20 DUP2 SWAP1 MSTORE PUSH1 0x40 SWAP1 KECCAK256 PUSH1 0x2 ADD SSTORE POP JUMP JUMPDEST CALLER PUSH1 0x0 SWAP1 DUP2 MSTORE PUSH1 0x20 DUP2 SWAP1 MSTORE PUSH1 0x40 DUP2 KECCAK256 PUSH1 0x2 ADD SLOAD DUP2 SWAP1 PUSH1 0x3C PUSH2 0x79E DUP2 TIMESTAMP PUSH2 0xA8C JUMP JUMPDEST PUSH2 0x7A8 SWAP2 SWAP1 PUSH2 0xA8C JUMP JUMPDEST PUSH2 0x7B2 SWAP2 SWAP1 PUSH2 0xACB JUMP JUMPDEST CALLER PUSH1 0x0 SWAP1 DUP2 MSTORE PUSH1 0x20 DUP2 DUP2 MSTORE PUSH1 0x40 DUP1 DUP4 KECCAK256 PUSH1 0x1 SWAP1 DUP2 ADD SLOAD DUP5 MSTORE SWAP1 SWAP2 MSTORE DUP2 KECCAK256 SLOAD SWAP2 SWAP3 POP SWAP1 PUSH2 0x7DF SWAP1 DUP4 SWAP1 PUSH2 0xAAC JUMP JUMPDEST SWAP1 POP DUP1 ISZERO PUSH2 0x82F JUMPI PUSH1 0x40 MLOAD PUSH3 0x461BCD PUSH1 0xE5 SHL DUP2 MSTORE PUSH1 0x20 PUSH1 0x4 DUP3 ADD MSTORE PUSH1 0x1B PUSH1 0x24 DUP3 ADD MSTORE PUSH32 0x50617920647565206265666F72652070726F6365656564696E672E0000000000 PUSH1 0x44 DUP3 ADD MSTORE PUSH1 0x64 ADD PUSH2 0x637 JUMP JUMPDEST POP POP CALLER PUSH1 0x0 DUP2 DUP2 MSTORE PUSH1 0x20 DUP2 DUP2 MSTORE PUSH1 0x40 DUP1 DUP4 KECCAK256 PUSH1 0x1 DUP2 DUP2 ADD DUP1 SLOAD DUP7 MSTORE DUP2 DUP6 MSTORE SWAP3 DUP6 KECCAK256 PUSH1 0x5 ADD DUP1 SLOAD PUSH1 0xFF NOT AND DUP3 OR SWAP1 SSTORE SWAP5 DUP5 MSTORE SWAP2 DUP4 SWAP1 MSTORE SWAP2 SWAP1 SWAP2 SSTORE DUP1 SLOAD PUSH1 0xFF PUSH1 0xA0 SHL NOT AND SWAP1 SSTORE SWAP2 SWAP1 POP JUMP JUMPDEST DUP3 DUP1 SLOAD PUSH2 0x884 SWAP1 PUSH2 0xAE2 JUMP JUMPDEST SWAP1 PUSH1 0x0 MSTORE PUSH1 0x20 PUSH1 0x0 KECCAK256 SWAP1 PUSH1 0x1F ADD PUSH1 0x20 SWAP1 DIV DUP2 ADD SWAP3 DUP3 PUSH2 0x8A6 JUMPI PUSH1 0x0 DUP6 SSTORE PUSH2 0x8EC JUMP JUMPDEST DUP3 PUSH1 0x1F LT PUSH2 0x8BF JUMPI DUP1 MLOAD PUSH1 0xFF NOT AND DUP4 DUP1 ADD OR DUP6 SSTORE PUSH2 0x8EC JUMP JUMPDEST DUP3 DUP1 ADD PUSH1 0x1 ADD DUP6 SSTORE DUP3 ISZERO PUSH2 0x8EC JUMPI SWAP2 DUP3 ADD JUMPDEST DUP3 DUP2 GT ISZERO PUSH2 0x8EC JUMPI DUP3 MLOAD DUP3 SSTORE SWAP2 PUSH1 0x20 ADD SWAP2 SWAP1 PUSH1 0x1 ADD SWAP1 PUSH2 0x8D1 JUMP JUMPDEST POP PUSH2 0x8F8 SWAP3 SWAP2 POP PUSH2 0x8FC JUMP JUMPDEST POP SWAP1 JUMP JUMPDEST JUMPDEST DUP1 DUP3 GT ISZERO PUSH2 0x8F8 JUMPI PUSH1 0x0 DUP2 SSTORE PUSH1 0x1 ADD PUSH2 0x8FD JUMP JUMPDEST PUSH1 0x0 PUSH1 0x20 DUP3 DUP5 SUB SLT ISZERO PUSH2 0x922 JUMPI DUP1 DUP2 REVERT JUMPDEST POP CALLDATALOAD SWAP2 SWAP1 POP JUMP JUMPDEST PUSH1 0x0 DUP1 PUSH1 0x0 PUSH1 0x60 DUP5 DUP7 SUB SLT ISZERO PUSH2 0x93D JUMPI DUP2 DUP3 REVERT JUMPDEST DUP4 CALLDATALOAD SWAP3 POP PUSH1 0x20 DUP5 ADD CALLDATALOAD SWAP2 POP PUSH1 0x40 DUP5 ADD CALLDATALOAD PUSH8 0xFFFFFFFFFFFFFFFF DUP1 DUP3 GT ISZERO PUSH2 0x962 JUMPI DUP3 DUP4 REVERT JUMPDEST DUP2 DUP7 ADD SWAP2 POP DUP7 PUSH1 0x1F DUP4 ADD SLT PUSH2 0x975 JUMPI DUP3 DUP4 REVERT JUMPDEST DUP2 CALLDATALOAD DUP2 DUP2 GT ISZERO PUSH2 0x987 JUMPI PUSH2 0x987 PUSH2 0xB33 JUMP JUMPDEST PUSH1 0x40 MLOAD PUSH1 0x1F DUP3 ADD PUSH1 0x1F NOT SWAP1 DUP2 AND PUSH1 0x3F ADD AND DUP2 ADD SWAP1 DUP4 DUP3 GT DUP2 DUP4 LT OR ISZERO PUSH2 0x9AF JUMPI PUSH2 0x9AF PUSH2 0xB33 JUMP JUMPDEST DUP2 PUSH1 0x40 MSTORE DUP3 DUP2 MSTORE DUP10 PUSH1 0x20 DUP5 DUP8 ADD ADD GT ISZERO PUSH2 0x9C7 JUMPI DUP6 DUP7 REVERT JUMPDEST DUP3 PUSH1 0x20 DUP7 ADD PUSH1 0x20 DUP4 ADD CALLDATACOPY DUP6 PUSH1 0x20 DUP5 DUP4 ADD ADD MSTORE DUP1 SWAP6 POP POP POP POP POP POP SWAP3 POP SWAP3 POP SWAP3 JUMP JUMPDEST PUSH1 0x0 PUSH1 0x20 DUP1 DUP4 MSTORE DUP4 MLOAD DUP2 DUP5 ADD MSTORE DUP1 DUP5 ADD MLOAD PUSH1 0x40 DUP5 ADD MSTORE PUSH1 0x40 DUP5 ADD MLOAD PUSH1 0x1 DUP1 PUSH1 0xA0 SHL SUB DUP1 DUP3 AND PUSH1 0x60 DUP7 ADD MSTORE DUP1 PUSH1 0x60 DUP8 ADD MLOAD AND PUSH1 0x80 DUP7 ADD MSTORE POP POP PUSH1 0x80 DUP5 ADD MLOAD PUSH1 0xC0 PUSH1 0xA0 DUP6 ADD MSTORE DUP1 MLOAD DUP1 PUSH1 0xE0 DUP7 ADD MSTORE DUP4 JUMPDEST DUP2 DUP2 LT ISZERO PUSH2 0xA53 JUMPI DUP3 DUP2 ADD DUP5 ADD MLOAD DUP7 DUP3 ADD PUSH2 0x100 ADD MSTORE DUP4 ADD PUSH2 0xA36 JUMP JUMPDEST DUP2 DUP2 GT ISZERO PUSH2 0xA65 JUMPI DUP5 PUSH2 0x100 DUP4 DUP9 ADD ADD MSTORE JUMPDEST POP PUSH1 0xA0 DUP7 ADD MLOAD DUP1 ISZERO ISZERO PUSH1 0xC0 DUP8 ADD MSTORE SWAP3 POP PUSH1 0x1F ADD PUSH1 0x1F NOT AND SWAP4 SWAP1 SWAP4 ADD PUSH2 0x100 ADD SWAP5 SWAP4 POP POP POP POP JUMP JUMPDEST PUSH1 0x0 DUP3 PUSH2 0xAA7 JUMPI PUSH4 0x4E487B71 PUSH1 0xE0 SHL DUP2 MSTORE PUSH1 0x12 PUSH1 0x4 MSTORE PUSH1 0x24 DUP2 REVERT JUMPDEST POP DIV SWAP1 JUMP JUMPDEST PUSH1 0x0 DUP2 PUSH1 0x0 NOT DIV DUP4 GT DUP3 ISZERO ISZERO AND ISZERO PUSH2 0xAC6 JUMPI PUSH2 0xAC6 PUSH2 0xB1D JUMP JUMPDEST POP MUL SWAP1 JUMP JUMPDEST PUSH1 0x0 DUP3 DUP3 LT ISZERO PUSH2 0xADD JUMPI PUSH2 0xADD PUSH2 0xB1D JUMP JUMPDEST POP SUB SWAP1 JUMP JUMPDEST PUSH1 0x1 DUP2 DUP2 SHR SWAP1 DUP3 AND DUP1 PUSH2 0xAF6 JUMPI PUSH1 0x7F DUP3 AND SWAP2 POP JUMPDEST PUSH1 0x20 DUP3 LT DUP2 EQ ISZERO PUSH2 0xB17 JUMPI PUSH4 0x4E487B71 PUSH1 0xE0 SHL PUSH1 0x0 MSTORE PUSH1 0x22 PUSH1 0x4 MSTORE PUSH1 0x24 PUSH1 0x0 REVERT JUMPDEST POP SWAP2 SWAP1 POP JUMP JUMPDEST PUSH4 0x4E487B71 PUSH1 0xE0 SHL PUSH1 0x0 MSTORE PUSH1 0x11 PUSH1 0x4 MSTORE PUSH1 0x24 PUSH1 0x0 REVERT JUMPDEST PUSH4 0x4E487B71 PUSH1 0xE0 SHL PUSH1 0x0 MSTORE PUSH1 0x41 PUSH1 0x4 MSTORE PUSH1 0x24 PUSH1 0x0 REVERT INVALID LOG2 PUSH5 0x6970667358 0x22 SLT KECCAK256 SWAP1 STATICCALL 0xB5 SWAP16 CREATE 0x2B SWAP8 0xCA 0xEE 0xB4 0xA6 PUSH28 0x738B9606291B80F98DFE3875D31BFB87AE4B422064736F6C63430008 DIV STOP CALLER "},"methodIdentifiers":{"addBike(uint256,uint256,string)":"b1c08e12","addUser()":"455c928c","onCheckIn(uint256)":"c117e6b3","onCheckout()":"fd98154a","onPayingDue()":"5bfbe388","returnDue()":"5273ae9c","returnUserData()":"d1faeb4d","returnUserReGStatus()":"8e22e8e1","returnUserRentedHr()":"75e6a96d","returnVehiclesData(uint256)":"2b09be00"}}}}}